{
  "_format": "hh-sol-artifact-1",
  "contractName": "Oracle",
  "sourceName": "contracts/Oracle.sol",
  "abi": [
    {
      "inputs": [],
      "stateMutability": "nonpayable",
      "type": "constructor"
    },
    {
      "inputs": [
        {
          "internalType": "address",
          "name": "_address",
          "type": "address"
        }
      ],
      "name": "addAuthorizedAddress",
      "outputs": [],
      "stateMutability": "nonpayable",
      "type": "function"
    },
    {
      "inputs": [
        {
          "internalType": "uint256",
          "name": "",
          "type": "uint256"
        }
      ],
      "name": "authorizedAddresses",
      "outputs": [
        {
          "internalType": "address",
          "name": "",
          "type": "address"
        }
      ],
      "stateMutability": "view",
      "type": "function"
    },
    {
      "inputs": [],
      "name": "getValue",
      "outputs": [
        {
          "internalType": "uint256",
          "name": "",
          "type": "uint256"
        }
      ],
      "stateMutability": "view",
      "type": "function"
    },
    {
      "inputs": [],
      "name": "oracleValue",
      "outputs": [
        {
          "internalType": "uint256",
          "name": "",
          "type": "uint256"
        }
      ],
      "stateMutability": "view",
      "type": "function"
    },
    {
      "inputs": [],
      "name": "owner",
      "outputs": [
        {
          "internalType": "address",
          "name": "",
          "type": "address"
        }
      ],
      "stateMutability": "view",
      "type": "function"
    },
    {
      "inputs": [
        {
          "internalType": "uint256",
          "name": "_newValue",
          "type": "uint256"
        }
      ],
      "name": "updateValue",
      "outputs": [],
      "stateMutability": "nonpayable",
      "type": "function"
    }
  ],
  "bytecode": "0x6080604052348015600f57600080fd5b5033600260006101000a81548173ffffffffffffffffffffffffffffffffffffffff021916908373ffffffffffffffffffffffffffffffffffffffff1602179055506001339080600181540180825580915050600190039060005260206000200160009091909190916101000a81548173ffffffffffffffffffffffffffffffffffffffff021916908373ffffffffffffffffffffffffffffffffffffffff160217905550610658806100c36000396000f3fe608060405234801561001057600080fd5b50600436106100625760003560e01c806320965255146100675780632efd4dce1461008557806342f1181e146100a3578063573c0bd3146100bf5780638da5cb5b146100db57806395874631146100f9575b600080fd5b61006f610129565b60405161007c9190610390565b60405180910390f35b61008d610132565b60405161009a9190610390565b60405180910390f35b6100bd60048036038101906100b8919061040e565b610138565b005b6100d960048036038101906100d49190610467565b61022e565b005b6100e3610312565b6040516100f091906104a3565b60405180910390f35b610113600480360381019061010e9190610467565b610338565b60405161012091906104a3565b60405180910390f35b60008054905090565b60005481565b600260009054906101000a900473ffffffffffffffffffffffffffffffffffffffff1673ffffffffffffffffffffffffffffffffffffffff163373ffffffffffffffffffffffffffffffffffffffff16146101c8576040517f08c379a00000000000000000000000000000000000000000000000000000000081526004016101bf90610541565b60405180910390fd5b6001819080600181540180825580915050600190039060005260206000200160009091909190916101000a81548173ffffffffffffffffffffffffffffffffffffffff021916908373ffffffffffffffffffffffffffffffffffffffff16021790555050565b6000805b6001805490508110156102c6573373ffffffffffffffffffffffffffffffffffffffff166001828154811061026a57610269610561565b5b9060005260206000200160009054906101000a900473ffffffffffffffffffffffffffffffffffffffff1673ffffffffffffffffffffffffffffffffffffffff16036102b957600191506102c6565b8080600101915050610232565b5080610307576040517f08c379a00000000000000000000000000000000000000000000000000000000081526004016102fe90610602565b60405180910390fd5b816000819055505050565b600260009054906101000a900473ffffffffffffffffffffffffffffffffffffffff1681565b6001818154811061034857600080fd5b906000526020600020016000915054906101000a900473ffffffffffffffffffffffffffffffffffffffff1681565b6000819050919050565b61038a81610377565b82525050565b60006020820190506103a56000830184610381565b92915050565b600080fd5b600073ffffffffffffffffffffffffffffffffffffffff82169050919050565b60006103db826103b0565b9050919050565b6103eb816103d0565b81146103f657600080fd5b50565b600081359050610408816103e2565b92915050565b600060208284031215610424576104236103ab565b5b6000610432848285016103f9565b91505092915050565b61044481610377565b811461044f57600080fd5b50565b6000813590506104618161043b565b92915050565b60006020828403121561047d5761047c6103ab565b5b600061048b84828501610452565b91505092915050565b61049d816103d0565b82525050565b60006020820190506104b86000830184610494565b92915050565b600082825260208201905092915050565b7f4f6e6c7920746865206f776e65722063616e2063616c6c20746869732066756e60008201527f6374696f6e000000000000000000000000000000000000000000000000000000602082015250565b600061052b6025836104be565b9150610536826104cf565b604082019050919050565b6000602082019050818103600083015261055a8161051e565b9050919050565b7f4e487b7100000000000000000000000000000000000000000000000000000000600052603260045260246000fd5b7f4f6e6c7920617574686f72697a6564206164647265737365732063616e20636160008201527f6c6c20746869732066756e6374696f6e00000000000000000000000000000000602082015250565b60006105ec6030836104be565b91506105f782610590565b604082019050919050565b6000602082019050818103600083015261061b816105df565b905091905056fea2646970667358221220ff0cc271f0e13e15151713bfcb2a7d816f4b65ca680bd9c17afc473659685a0764736f6c634300081c0033",
  "linkReferences": {},
  "deployedLinkReferences": {}
}